:100000000C942A000C94E4010C94E4010C94E40197
:100010000C94E4010C94E4010C94E4010C94E401CC
:100020000C94E4010C94E4010C94E4010C94E401BC
:100030000C94E4010C94E4010C94E4010C94E401AC
:100040000C94E4010C94E4010C94E4010C94E4019C
:100050000C94E40111241FBECFE5D8E0DEBFCDBF74
:0C0060000E9436000C943400F894FFCF8E
:10006C000E948B0183E00E9432012FEF89E698E118
:10007C00215080409040E1F700C0000083E00E94D6
:10008C0051012FEF89E698E1215080409040E1F733
:10009C0000C0000083E00E9470010E949C012FEFC1
:1000AC0089E698E1215080409040E1F700C00000C3
:1000BC000E94A9012FEF89E698E1215080409040E1
:1000CC00E1F700C000000E94B6012FEF89E698E12D
:0E00DC00215080409040E1F700C00000F4CFBA
:1000EA00662319F0613079F0089547B321E030E0D2
:1000FA00B90102C0660F771F8A95E2F7CB01809596
:10010A00842387BB089547B321E030E0B90102C0D8
:10011A00660F771F8A95E2F7CB01842B87BB089578
:10012A00662319F0613079F0089544B321E030E094
:10013A00B90102C0660F771F8A95E2F7CB01809555
:10014A00842384BB089544B321E030E0B90102C09E
:10015A00660F771F8A95E2F7CB01842B84BB08953B
:10016A00662319F0613079F0089541B321E030E057
:10017A00B90102C0660F771F8A95E2F7CB01809515
:10018A00842381BB089541B321E030E0B90102C064
:10019A00660F771F8A95E2F7CB01842B81BB0895FE
:1001AA00662379F06130D1F448B321E030E0B90137
:1001BA0002C0660F771F8A95E2F7CB01842B88BBB2
:1001CA00089548B321E030E0B90102C0660F771FF5
:0E01DA008A95E2F7CB018095842388BB0895B7
:1001E800662379F06130D1F445B321E030E0B901FC
:1001F80002C0660F771F8A95E2F7CB01842B85BB77
:10020800089545B321E030E0B90102C0660F771FB9
:0E0218008A95E2F7CB018095842385BB08957B
:10022600662379F06130D1F442B321E030E0B901C0
:1002360002C0660F771F8A95E2F7CB01842B82BB3B
:10024600089542B321E030E0B90102C0660F771F7E
:0E0256008A95E2F7CB018095842382BB089540
:10026400833049F018F4823059F00895863091F0C3
:10027400873059F0089561E083E00E94D500089525
:1002840061E082E00E94F400089561E087E00E944A
:0E029400F400089561E086E00E9413010895D1
:1002A200833049F018F4823059F00895863091F085
:1002B200873059F0089560E083E00E94D5000895E8
:1002C20060E082E00E94F400089560E087E00E940E
:0E02D200F400089560E086E00E941301089594
:1002E000833049F018F4823051F00895863079F067
:1002F000873049F0089583E00E94C301089582E0A9
:100300000E94CE01089587E00E94CE01089586E004
:060310000E94D9010895CE
:1003160061E083E00E94750061E082E00E94950042
:1003260061E087E00E94950061E086E00E94B500EA
:02033600089528
:1003380083E00E94320182E00E94320187E00E943D
:0A034800320186E00E9432010895A0
:1003520083E00E94510182E00E94510187E00E94E5
:0A036200510186E00E945101089548
:10036C0083E00E94C30182E00E94CE0187E00E94DC
:0A037C00CE0186E00E94D901089529
:1003860098B321E030E002C0220F331F8A95E2F7CE
:06039600292728BB089591
:10039C0095B321E030E002C0220F331F8A95E2F7BB
:0603AC00292725BB08957E
:1003B20092B321E030E002C0220F331F8A95E2F7A8
:0603C200292722BB08956B
:0403C8000C94000091
:00000001FF
