:100000000C942E000C9480000C9480000C948000C2
:100010000C9480000C9480000C9480000C94800060
:100020000C9480000C9480000C9480000C94800050
:100030000C9480000C9480000C9480000C94800040
:100040000C9480000C9480000C9480000C94800030
:100050000C9480000060006A0001080011241FBE9B
:10006000CFE5D8E0DEBFCDBFE4E5F0E040E017C06B
:10007000B591A59135912591059107FD0CC09591FC
:100080008591EF01F92FE82F05900D92A217B30784
:10009000D9F7FE0104C01D92A217B307E1F7EB35B3
:1000A000F40731F70E9458000C945600F894FFCFE3
:1000B0000E947C00C0E08C2F0E9474002FEF89E624
:1000C00098E1215080409040E1F700C00000CF5FF0
:0600D000CA3089F7EFCFF2
:1000D600882329F0813021F48FEF8ABB08951ABA5C
:0200E60008957B
:1000E800E82FF0E0E05AFF4F80810E9482000895D7
:0800F80081E00E946B000895F5
:040100000C9400005B
:040104008BBB089514
:0A0108003F065B4F666D7D077F6FB9
:00000001FF
