:100000000C942A000C9441010C9441010C94410180
:100010000C9441010C9441010C9441010C94410158
:100020000C9441010C9441010C9441010C94410148
:100030000C9441010C9441010C9441010C94410138
:100040000C9441010C9441010C9441010C94410128
:100050000C94410111241FBECFE5D8E0DEBFCDBF17
:10006000E4E5F0E040E017C0B591A5913591259108
:10007000059107FD0CC095918591EF01F92FE82FAF
:1000800005900D92A217B307D9F7FE0104C01D9287
:10009000A217B307E1F7E435F40731F70E94D40063
:0800A0000C945200F894FFCF0C
:1000A800662319F0613079F008954AB321E030E011
:1000B800B90102C0660F771F8A95E2F7CB018095D8
:1000C80084238ABB08954AB321E030E0B90102C015
:1000D800660F771F8A95E2F7CB01842B8ABB0895B8
:1000E800662319F0613079F0089547B321E030E0D4
:1000F800B90102C0660F771F8A95E2F7CB01809598
:10010800842387BB089547B321E030E0B90102C0DA
:10011800660F771F8A95E2F7CB01842B87BB08957A
:10012800662319F0613079F0089544B321E030E096
:10013800B90102C0660F771F8A95E2F7CB01809557
:10014800842384BB089544B321E030E0B90102C0A0
:10015800660F771F8A95E2F7CB01842B84BB08953D
:10016800662319F0613079F0089541B321E030E059
:10017800B90102C0660F771F8A95E2F7CB01809517
:10018800842381BB089541B321E030E0B90102C066
:10019800660F771F8A95E2F7CB01842B81BB089500
:1001A8000E94EE000E943801D0E001C0DC2F0E94BE
:1001B8003D01C82F8823D1F3D111F8CF0E94FF0049
:1001C8002FEF89E698E1215080409040E1F700C088
:0401D8000000ECCF68
:1001DC0061E083E00E94740061E082E00E94940080
:1001EC0061E087E00E94940061E086E00E94B40028
:0201FC00089564
:1001FE0083E00E94170182E00E94220187E00E94A4
:0A020E00220186E00E942D010895F0
:1002180029B330E0A90102C0559547958A95E2F7C0
:06022800CA018170089577
:10022E0098B321E030E002C0220F331F8A95E2F727
:06023E00292728BB0895EA
:1002440095B321E030E002C0220F331F8A95E2F714
:06025400292725BB0895D7
:10025A0092B321E030E002C0220F331F8A95E2F701
:06026A00292722BB0895C4
:0A02700060E080E00E945400089551
:08027A0080E00E940C010895D0
:040282000C940000D8
:00000001FF
