:100000000C942E000C9496020C9496020C9496027A
:100010000C9496020C9496020C9496020C94960200
:100020000C9496020C9496020C9496020C949602F0
:100030000C9496020C9496020C9496020C949602E0
:100040000C9496020C9496020C9496020C949602D0
:100050000C9496020060006C0005340011241FBE51
:10006000CFE5D8E0DEBFCDBFE4E5F0E040E017C06B
:10007000B591A59135912591059107FD0CC09591FC
:100080008591EF01F92FE82F05900D92A217B30784
:10009000D9F7FE0104C01D92A217B307E1F7EB35B3
:1000A000F40731F70E9458000C945600F894FFCFE3
:1000B0000E9485020E9412010E94CE008233D1F07C
:1000C00018F4813339F0F8CF833351F1843309F4D4
:1000D00043C0F2CF83E00E9447022FEF83EC99E008
:1000E000215080409040E1F700C0000083E00E9472
:1000F0006602E2CF83E00E94470282E00E9447024C
:100100002FEF83EC99E0215080409040E1F700C050
:10011000000083E00E94660282E00E946602CCCF6B
:1001200083E00E94470282E00E94470287E00E942B
:1001300047022FEF83EC99E0215080409040E1F797
:1001400000C0000083E00E94660282E00E94660216
:1001500087E00E946602B0CF83E00E94470282E0FF
:100160000E94470287E00E94470286E00E94470201
:100170002FEF83EC99E0215080409040E1F700C0E0
:10018000000083E00E94660282E00E94660287E02F
:0C0190000E94660286E00E9466028ECF8C
:10019C00FF920F931F93CF93DF9304E010E0F02EA8
:1001AC0060E0802F0E94CB01C1E0D0E00E94980259
:1001BC0090E00C2E02C0959587950A94E2F780FD8D
:1001CC0017C061E08F2D0E94CB0183ED90E3019766
:1001DC00F1F700C0000004501109C801880F991FE5
:1001EC00080F191FC00FD11FC15ADF4F88810EC0D5
:1001FC002196C430D105D1F661E08F2D0E94CB0140
:10020C000F5F1F4F0830110551F680E0DF91CF9141
:08021C001F910F91FF9008955E
:1002240061E084E00E944B0161E085E00E944B01A3
:1002340061E086E00E944B0161E087E00E944B018F
:1002440060E081E00E944B0160E082E00E944B018B
:1002540060E083E00E944B0161E084E00E94CB01F6
:1002640061E085E00E94CB0161E086E00E94CB0161
:1002740061E087E00E94CB0161E081E00E94CB0154
:1002840061E082E00E94CB0161E083E00E94CB0147
:020294000895CB
:10029600662319F0613079F008954AB321E030E021
:1002A600B90102C0660F771F8A95E2F7CB018095E8
:1002B60084238ABB08954AB321E030E0B90102C025
:1002C600660F771F8A95E2F7CB01842B8ABB0895C8
:1002D600662319F0613079F0089547B321E030E0E4
:1002E600B90102C0660F771F8A95E2F7CB018095A8
:1002F600842387BB089547B321E030E0B90102C0EB
:10030600660F771F8A95E2F7CB01842B87BB08958A
:10031600662319F0613079F0089544B321E030E0A6
:10032600B90102C0660F771F8A95E2F7CB01809567
:10033600842384BB089544B321E030E0B90102C0B0
:10034600660F771F8A95E2F7CB01842B84BB08954D
:10035600662319F0613079F0089541B321E030E069
:10036600B90102C0660F771F8A95E2F7CB01809527
:10037600842381BB089541B321E030E0B90102C076
:10038600660F771F8A95E2F7CB01842B81BB089510
:10039600662379F06130D1F44BB321E030E0B90146
:1003A60002C0660F771F8A95E2F7CB01842B8BBBC1
:1003B60008954BB321E030E0B90102C0660F771F04
:0E03C6008A95E2F7CB01809584238BBB0895C6
:1003D400662379F06130D1F448B321E030E0B9010B
:1003E40002C0660F771F8A95E2F7CB01842B88BB86
:1003F400089548B321E030E0B90102C0660F771FC9
:0E0404008A95E2F7CB018095842388BB08958A
:10041200662379F06130D1F445B321E030E0B901CF
:1004220002C0660F771F8A95E2F7CB01842B85BB4A
:10043200089545B321E030E0B90102C0660F771F8D
:0E0442008A95E2F7CB018095842385BB08954F
:10045000662379F06130D1F442B321E030E0B90194
:1004600002C0660F771F8A95E2F7CB01842B82BB0F
:10047000089542B321E030E0B90102C0660F771F52
:0E0480008A95E2F7CB018095842382BB089514
:10048E00833049F018F4823059F00895863091F097
:10049E00873059F0089561E083E00E94EA010895E3
:1004AE0061E082E00E940902089561E087E00E9407
:0E04BE000902089561E086E00E942802089578
:1004CC00833049F018F4823059F00895863091F059
:1004DC00873059F0089560E083E00E94EA010895A6
:1004EC0060E082E00E940902089560E087E00E94CB
:0E04FC000902089560E086E00E94280208953B
:10050A0061E083E00E946B0161E082E00E948B015E
:10051A0061E087E00E948B0161E086E00E94AB0106
:02052A00089532
:04052C000C9400002B
:0405300089B30895EE
:0C0534003132333435363738392A302361
:00000001FF
