:100000000C942A000C9413010C9413010C9413010A
:100010000C9413010C9413010C9413010C94130110
:100020000C9413010C9413010C9413010C94130100
:100030000C9413010C9413010C9413010C941301F0
:100040000C9413010C9413010C9413010C941301E0
:100050000C94130111241FBECFE5D8E0DEBFCDBF45
:10006000E4E5F0E040E017C0B591A5913591259108
:10007000059107FD0CC095918591EF01F92FE82FAF
:1000800005900D92A217B307D9F7FE0104C01D9287
:10009000A217B307E1F7E435F40731F70E94B10086
:0800A0000C945200F894FFCF0C
:1000A800662319F0613079F0089547B321E030E014
:1000B800B90102C0660F771F8A95E2F7CB018095D8
:1000C800842387BB089547B321E030E0B90102C01B
:1000D800660F771F8A95E2F7CB01842B87BB0895BB
:1000E800662379F06130D1F448B321E030E0B901FA
:1000F80002C0660F771F8A95E2F7CB01842B88BB75
:10010800089548B321E030E0B90102C0660F771FB7
:0E0118008A95E2F7CB018095842388BB089579
:100126008AB3806F8ABB61E081E00E94540061E07F
:1001360082E00E94540082E00E94CE0088E20E9483
:10014600CE008FE00E94CE0081E00E94CE0086E0C5
:0C0156000E94CE0082E00E94CE000895BE
:100162000E94930088E40E94E90081E40E94E90071
:1001720082E40E94E90089E40E94E90082E40E948C
:10018200E90081E40E94E90082E30E94E90085E33C
:0A0192000E94E90080E090E008956B
:10019C00CF93C82F60E081E00E9474008BB39C2F3A
:1001AC00907F8F70892B8BBB0E9404012BB330E1A5
:1001BC00C39FC0011124922F9F70892B8BBB0E946F
:0601CC000401CF9108952B
:1001D200CF93C82F61E081E00E9474008BB39C2F03
:1001E200907F8F70892B8BBB0E9404012BB330E16F
:1001F200C39FC0011124922F9F70892B8BBB0E9439
:060202000401CF910895F4
:1002080061E082E00E9474008FE19EE40197F1F7BB
:0E02180000C0000060E082E00E9474000895C3
:040226000C94000034
:00000001FF
